{
  "address": "0x4bA3d8dC8F1A3B3763B25D3EC67aC7dcBbB503c1",
  "abi": [
    {
      "inputs": [
        {
          "internalType": "contract IPoolAddressesProvider",
          "name": "addressesProvider",
          "type": "address"
        }
      ],
      "stateMutability": "nonpayable",
      "type": "constructor"
    },
    {
      "inputs": [],
      "name": "ADDRESSES_PROVIDER",
      "outputs": [
        {
          "internalType": "contract IPoolAddressesProvider",
          "name": "",
          "type": "address"
        }
      ],
      "stateMutability": "view",
      "type": "function"
    },
    {
      "inputs": [
        {
          "internalType": "address",
          "name": "asset",
          "type": "address"
        }
      ],
      "name": "getATokenTotalSupply",
      "outputs": [
        {
          "internalType": "uint256",
          "name": "",
          "type": "uint256"
        }
      ],
      "stateMutability": "view",
      "type": "function"
    },
    {
      "inputs": [],
      "name": "getAllATokens",
      "outputs": [
        {
          "components": [
            {
              "internalType": "string",
              "name": "symbol",
              "type": "string"
            },
            {
              "internalType": "address",
              "name": "tokenAddress",
              "type": "address"
            }
          ],
          "internalType": "struct AaveProtocolDataProvider.TokenData[]",
          "name": "",
          "type": "tuple[]"
        }
      ],
      "stateMutability": "view",
      "type": "function"
    },
    {
      "inputs": [],
      "name": "getAllReservesTokens",
      "outputs": [
        {
          "components": [
            {
              "internalType": "string",
              "name": "symbol",
              "type": "string"
            },
            {
              "internalType": "address",
              "name": "tokenAddress",
              "type": "address"
            }
          ],
          "internalType": "struct AaveProtocolDataProvider.TokenData[]",
          "name": "",
          "type": "tuple[]"
        }
      ],
      "stateMutability": "view",
      "type": "function"
    },
    {
      "inputs": [
        {
          "internalType": "address",
          "name": "asset",
          "type": "address"
        }
      ],
      "name": "getDebtCeiling",
      "outputs": [
        {
          "internalType": "uint256",
          "name": "",
          "type": "uint256"
        }
      ],
      "stateMutability": "view",
      "type": "function"
    },
    {
      "inputs": [],
      "name": "getDebtCeilingDecimals",
      "outputs": [
        {
          "internalType": "uint256",
          "name": "",
          "type": "uint256"
        }
      ],
      "stateMutability": "pure",
      "type": "function"
    },
    {
      "inputs": [
        {
          "internalType": "address",
          "name": "asset",
          "type": "address"
        }
      ],
      "name": "getInterestRateStrategyAddress",
      "outputs": [
        {
          "internalType": "address",
          "name": "irStrategyAddress",
          "type": "address"
        }
      ],
      "stateMutability": "view",
      "type": "function"
    },
    {
      "inputs": [
        {
          "internalType": "address",
          "name": "asset",
          "type": "address"
        }
      ],
      "name": "getLiquidationProtocolFee",
      "outputs": [
        {
          "internalType": "uint256",
          "name": "",
          "type": "uint256"
        }
      ],
      "stateMutability": "view",
      "type": "function"
    },
    {
      "inputs": [
        {
          "internalType": "address",
          "name": "asset",
          "type": "address"
        }
      ],
      "name": "getPaused",
      "outputs": [
        {
          "internalType": "bool",
          "name": "isPaused",
          "type": "bool"
        }
      ],
      "stateMutability": "view",
      "type": "function"
    },
    {
      "inputs": [
        {
          "internalType": "address",
          "name": "asset",
          "type": "address"
        }
      ],
      "name": "getReserveCaps",
      "outputs": [
        {
          "internalType": "uint256",
          "name": "borrowCap",
          "type": "uint256"
        },
        {
          "internalType": "uint256",
          "name": "supplyCap",
          "type": "uint256"
        }
      ],
      "stateMutability": "view",
      "type": "function"
    },
    {
      "inputs": [
        {
          "internalType": "address",
          "name": "asset",
          "type": "address"
        }
      ],
      "name": "getReserveConfigurationData",
      "outputs": [
        {
          "internalType": "uint256",
          "name": "decimals",
          "type": "uint256"
        },
        {
          "internalType": "uint256",
          "name": "ltv",
          "type": "uint256"
        },
        {
          "internalType": "uint256",
          "name": "liquidationThreshold",
          "type": "uint256"
        },
        {
          "internalType": "uint256",
          "name": "liquidationBonus",
          "type": "uint256"
        },
        {
          "internalType": "uint256",
          "name": "reserveFactor",
          "type": "uint256"
        },
        {
          "internalType": "bool",
          "name": "usageAsCollateralEnabled",
          "type": "bool"
        },
        {
          "internalType": "bool",
          "name": "borrowingEnabled",
          "type": "bool"
        },
        {
          "internalType": "bool",
          "name": "stableBorrowRateEnabled",
          "type": "bool"
        },
        {
          "internalType": "bool",
          "name": "isActive",
          "type": "bool"
        },
        {
          "internalType": "bool",
          "name": "isFrozen",
          "type": "bool"
        }
      ],
      "stateMutability": "view",
      "type": "function"
    },
    {
      "inputs": [
        {
          "internalType": "address",
          "name": "asset",
          "type": "address"
        }
      ],
      "name": "getReserveData",
      "outputs": [
        {
          "internalType": "uint256",
          "name": "unbacked",
          "type": "uint256"
        },
        {
          "internalType": "uint256",
          "name": "accruedToTreasuryScaled",
          "type": "uint256"
        },
        {
          "internalType": "uint256",
          "name": "totalAToken",
          "type": "uint256"
        },
        {
          "internalType": "uint256",
          "name": "totalStableDebt",
          "type": "uint256"
        },
        {
          "internalType": "uint256",
          "name": "totalVariableDebt",
          "type": "uint256"
        },
        {
          "internalType": "uint256",
          "name": "liquidityRate",
          "type": "uint256"
        },
        {
          "internalType": "uint256",
          "name": "variableBorrowRate",
          "type": "uint256"
        },
        {
          "internalType": "uint256",
          "name": "stableBorrowRate",
          "type": "uint256"
        },
        {
          "internalType": "uint256",
          "name": "averageStableBorrowRate",
          "type": "uint256"
        },
        {
          "internalType": "uint256",
          "name": "liquidityIndex",
          "type": "uint256"
        },
        {
          "internalType": "uint256",
          "name": "variableBorrowIndex",
          "type": "uint256"
        },
        {
          "internalType": "uint40",
          "name": "lastUpdateTimestamp",
          "type": "uint40"
        }
      ],
      "stateMutability": "view",
      "type": "function"
    },
    {
      "inputs": [
        {
          "internalType": "address",
          "name": "asset",
          "type": "address"
        }
      ],
      "name": "getReserveEModeCategory",
      "outputs": [
        {
          "internalType": "uint256",
          "name": "",
          "type": "uint256"
        }
      ],
      "stateMutability": "view",
      "type": "function"
    },
    {
      "inputs": [
        {
          "internalType": "address",
          "name": "asset",
          "type": "address"
        }
      ],
      "name": "getReserveTokensAddresses",
      "outputs": [
        {
          "internalType": "address",
          "name": "aTokenAddress",
          "type": "address"
        },
        {
          "internalType": "address",
          "name": "stableDebtTokenAddress",
          "type": "address"
        },
        {
          "internalType": "address",
          "name": "variableDebtTokenAddress",
          "type": "address"
        }
      ],
      "stateMutability": "view",
      "type": "function"
    },
    {
      "inputs": [
        {
          "internalType": "address",
          "name": "asset",
          "type": "address"
        }
      ],
      "name": "getSiloedBorrowing",
      "outputs": [
        {
          "internalType": "bool",
          "name": "",
          "type": "bool"
        }
      ],
      "stateMutability": "view",
      "type": "function"
    },
    {
      "inputs": [
        {
          "internalType": "address",
          "name": "asset",
          "type": "address"
        }
      ],
      "name": "getTotalDebt",
      "outputs": [
        {
          "internalType": "uint256",
          "name": "",
          "type": "uint256"
        }
      ],
      "stateMutability": "view",
      "type": "function"
    },
    {
      "inputs": [
        {
          "internalType": "address",
          "name": "asset",
          "type": "address"
        }
      ],
      "name": "getUnbackedMintCap",
      "outputs": [
        {
          "internalType": "uint256",
          "name": "",
          "type": "uint256"
        }
      ],
      "stateMutability": "view",
      "type": "function"
    },
    {
      "inputs": [
        {
          "internalType": "address",
          "name": "asset",
          "type": "address"
        },
        {
          "internalType": "address",
          "name": "user",
          "type": "address"
        }
      ],
      "name": "getUserReserveData",
      "outputs": [
        {
          "internalType": "uint256",
          "name": "currentATokenBalance",
          "type": "uint256"
        },
        {
          "internalType": "uint256",
          "name": "currentStableDebt",
          "type": "uint256"
        },
        {
          "internalType": "uint256",
          "name": "currentVariableDebt",
          "type": "uint256"
        },
        {
          "internalType": "uint256",
          "name": "principalStableDebt",
          "type": "uint256"
        },
        {
          "internalType": "uint256",
          "name": "scaledVariableDebt",
          "type": "uint256"
        },
        {
          "internalType": "uint256",
          "name": "stableBorrowRate",
          "type": "uint256"
        },
        {
          "internalType": "uint256",
          "name": "liquidityRate",
          "type": "uint256"
        },
        {
          "internalType": "uint40",
          "name": "stableRateLastUpdated",
          "type": "uint40"
        },
        {
          "internalType": "bool",
          "name": "usageAsCollateralEnabled",
          "type": "bool"
        }
      ],
      "stateMutability": "view",
      "type": "function"
    }
  ],
  "transactionHash": "0x0c461c3b31bd473f816b7f668a8a0e7c0ed9effc6b941d49131405fd189d53b6",
  "args": [
    "0xF2C5Ff07bCDC15477741b6e7412b7Ec674237e15"
  ],
  "numDeployments": 1,
  "solcInputHash": "859a23405950d1edc8948f26899cd37c",
  "bytecode": "0x60a06040523480156200001157600080fd5b506040516200281b3803806200281b833981016040819052620000349162000046565b6001600160a01b031660805262000078565b6000602082840312156200005957600080fd5b81516001600160a01b03811681146200007157600080fd5b9392505050565b6080516127106200010b60003960008181610120015281816103f001528181610500015281816105f301528181610a6801528181610daf01528181610eb601528181610fc00152818161110e01528181611222015281816113ee01528181611549015281816116490152818161174901528181611ada01528181611bdd01528181611cf00152611fac01526127106000f3fe608060405234801561001057600080fd5b50600436106101165760003560e01c806351460e25116100a2578063b316ff8911610071578063b316ff891461035b578063b55d990414610370578063d2493b6c14610393578063f561ae41146103d0578063fcf40a62146103d857600080fd5b806351460e251461031b5780636744362a1461032e57806369b169e1146103415780637ba1ae361461034857600080fd5b80633c798109116100e95780633c798109146102535780633cb8a622146102665780633e1501411461027957806346fbe558146102e05780634d44ac4f1461030857600080fd5b80630542975c1461011b578063163a0f201461015f57806328dd2d011461018057806335ea6a75146101e0575b600080fd5b6101427f000000000000000000000000000000000000000000000000000000000000000081565b6040516001600160a01b0390911681526020015b60405180910390f35b61017261016d366004612160565b6103eb565b604051908152602001610156565b61019361018e36600461217d565b6104ef565b60408051998a5260208a0198909852968801959095526060870193909352608086019190915260a085015260c084015264ffffffffff1660e0830152151561010082015261012001610156565b6101f36101ee366004612160565b610a52565b604080519c8d5260208d019b909b52998b019890985260608a0196909652608089019490945260a088019290925260c087015260e086015261010085015261012084015261014083015264ffffffffff1661016082015261018001610156565b610172610261366004612160565b610da8565b610172610274366004612160565b610eaf565b61028c610287366004612160565b610fad565b604080519a8b5260208b01999099529789019690965260608801949094526080870192909252151560a0860152151560c0850152151560e08401521515610100830152151561012082015261014001610156565b6102f36102ee366004612160565b611106565b60408051928352602083019190915201610156565b610172610316366004612160565b61121d565b610172610329366004612160565b6113e9565b61014261033c366004612160565b611544565b6002610172565b610172610356366004612160565b611642565b610363611743565b6040516101569190612212565b61038361037e366004612160565b611ad3565b6040519015158152602001610156565b6103a66103a1366004612160565b611bd5565b604080516001600160a01b0394851681529284166020840152921691810191909152606001610156565b610363611cea565b6103836103e6366004612160565b611fa5565b6000807f00000000000000000000000000000000000000000000000000000000000000006001600160a01b031663026b1d5f6040518163ffffffff1660e01b8152600401602060405180830381865afa15801561044c573d6000803e3d6000fd5b505050506040513d601f19601f8201168201806040525081019061047091906122a1565b60405163c44b11f760e01b81526001600160a01b038581166004830152919091169063c44b11f790602401602060405180830381865afa1580156104b8573d6000803e3d6000fd5b505050506040513d601f19601f820116820180604052508101906104dc9190612371565b805190915060a81c60ff165b9392505050565b6000806000806000806000806000807f00000000000000000000000000000000000000000000000000000000000000006001600160a01b031663026b1d5f6040518163ffffffff1660e01b8152600401602060405180830381865afa15801561055c573d6000803e3d6000fd5b505050506040513d601f19601f8201168201806040525081019061058091906122a1565b6040516335ea6a7560e01b81526001600160a01b038e8116600483015291909116906335ea6a75906024016101e060405180830381865afa1580156105c9573d6000803e3d6000fd5b505050506040513d601f19601f820116820180604052508101906105ed91906123cb565b905060007f00000000000000000000000000000000000000000000000000000000000000006001600160a01b031663026b1d5f6040518163ffffffff1660e01b8152600401602060405180830381865afa15801561064f573d6000803e3d6000fd5b505050506040513d601f19601f8201168201806040525081019061067391906122a1565b604051634417a58360e01b81526001600160a01b038e811660048301529190911690634417a58390602401602060405180830381865afa1580156106bb573d6000803e3d6000fd5b505050506040513d601f19601f820116820180604052508101906106df9190612371565b6101008301516040516370a0823160e01b81526001600160a01b038f811660048301529293509116906370a0823190602401602060405180830381865afa15801561072e573d6000803e3d6000fd5b505050506040513d601f19601f8201168201806040525081019061075291906124ee565b6101408301516040516370a0823160e01b81526001600160a01b038f81166004830152929d509116906370a0823190602401602060405180830381865afa1580156107a1573d6000803e3d6000fd5b505050506040513d601f19601f820116820180604052508101906107c591906124ee565b6101208301516040516370a0823160e01b81526001600160a01b038f81166004830152929b509116906370a0823190602401602060405180830381865afa158015610814573d6000803e3d6000fd5b505050506040513d601f19601f8201168201806040525081019061083891906124ee565b61012083015160405163631a6fd560e11b81526001600160a01b038f81166004830152929c5091169063c634dfaa90602401602060405180830381865afa158015610887573d6000803e3d6000fd5b505050506040513d601f19601f820116820180604052508101906108ab91906124ee565b610140830151604051630ed1279f60e11b81526001600160a01b038f81166004830152929a50911690631da24f3e90602401602060405180830381865afa1580156108fa573d6000803e3d6000fd5b505050506040513d601f19601f8201168201806040525081019061091e91906124ee565b965081604001516001600160801b031694508161012001516001600160a01b031663e78c9b3b8d6040518263ffffffff1660e01b815260040161097091906001600160a01b0391909116815260200190565b602060405180830381865afa15801561098d573d6000803e3d6000fd5b505050506040513d601f19601f820116820180604052508101906109b191906124ee565b610120830151604051631e739ae360e21b81526001600160a01b038f811660048301529298509116906379ce6b8c90602401602060405180830381865afa158015610a00573d6000803e3d6000fd5b505050506040513d601f19601f82011682018060405250810190610a249190612507565b9350610a418260e0015161ffff16826120a890919063ffffffff16565b925050509295985092959850929598565b60008060008060008060008060008060008060007f00000000000000000000000000000000000000000000000000000000000000006001600160a01b031663026b1d5f6040518163ffffffff1660e01b8152600401602060405180830381865afa158015610ac4573d6000803e3d6000fd5b505050506040513d601f19601f82011682018060405250810190610ae891906122a1565b6001600160a01b03166335ea6a758f6040518263ffffffff1660e01b8152600401610b2291906001600160a01b0391909116815260200190565b6101e060405180830381865afa158015610b40573d6000803e3d6000fd5b505050506040513d601f19601f82011682018060405250810190610b6491906123cb565b9050806101a001518161018001518261010001516001600160a01b03166318160ddd6040518163ffffffff1660e01b8152600401602060405180830381865afa158015610bb5573d6000803e3d6000fd5b505050506040513d601f19601f82011682018060405250810190610bd991906124ee565b8361012001516001600160a01b03166318160ddd6040518163ffffffff1660e01b8152600401602060405180830381865afa158015610c1c573d6000803e3d6000fd5b505050506040513d601f19601f82011682018060405250810190610c4091906124ee565b8461014001516001600160a01b03166318160ddd6040518163ffffffff1660e01b8152600401602060405180830381865afa158015610c83573d6000803e3d6000fd5b505050506040513d601f19601f82011682018060405250810190610ca791906124ee565b856040015186608001518760a001518861012001516001600160a01b03166390f6fcf26040518163ffffffff1660e01b8152600401602060405180830381865afa158015610cf9573d6000803e3d6000fd5b505050506040513d601f19601f82011682018060405250810190610d1d91906124ee565b89602001518a606001518b60c001518b6001600160801b03169b508a6001600160801b03169a50866001600160801b03169650856001600160801b03169550846001600160801b03169450826001600160801b03169250816001600160801b031691509c509c509c509c509c509c509c509c509c509c509c509c505091939597999b5091939597999b565b6000610ea97f00000000000000000000000000000000000000000000000000000000000000006001600160a01b031663026b1d5f6040518163ffffffff1660e01b8152600401602060405180830381865afa158015610e0b573d6000803e3d6000fd5b505050506040513d601f19601f82011682018060405250810190610e2f91906122a1565b60405163c44b11f760e01b81526001600160a01b038581166004830152919091169063c44b11f790602401602060405180830381865afa158015610e77573d6000803e3d6000fd5b505050506040513d601f19601f82011682018060405250810190610e9b9190612371565b5160d41c64ffffffffff1690565b92915050565b6000610ea97f00000000000000000000000000000000000000000000000000000000000000006001600160a01b031663026b1d5f6040518163ffffffff1660e01b8152600401602060405180830381865afa158015610f12573d6000803e3d6000fd5b505050506040513d601f19601f82011682018060405250810190610f3691906122a1565b60405163c44b11f760e01b81526001600160a01b038581166004830152919091169063c44b11f790602401602060405180830381865afa158015610f7e573d6000803e3d6000fd5b505050506040513d601f19601f82011682018060405250810190610fa29190612371565b5160981c61ffff1690565b60008060008060008060008060008060007f00000000000000000000000000000000000000000000000000000000000000006001600160a01b031663026b1d5f6040518163ffffffff1660e01b8152600401602060405180830381865afa15801561101c573d6000803e3d6000fd5b505050506040513d601f19601f8201168201806040525081019061104091906122a1565b60405163c44b11f760e01b81526001600160a01b038e81166004830152919091169063c44b11f790602401602060405180830381865afa158015611088573d6000803e3d6000fd5b505050506040513d601f19601f820116820180604052508101906110ac9190612371565b8051603081901c60ff169c5061ffff8082169c50601082901c81169b50602082901c81169a5060409190911c16975090506110e681612100565b509d9f9c9e509a9c999b989a8d15159a9099909850919650945092505050565b6000806112137f00000000000000000000000000000000000000000000000000000000000000006001600160a01b031663026b1d5f6040518163ffffffff1660e01b8152600401602060405180830381865afa15801561116a573d6000803e3d6000fd5b505050506040513d601f19601f8201168201806040525081019061118e91906122a1565b60405163c44b11f760e01b81526001600160a01b038681166004830152919091169063c44b11f790602401602060405180830381865afa1580156111d6573d6000803e3d6000fd5b505050506040513d601f19601f820116820180604052508101906111fa9190612371565b51640fffffffff605082901c81169260749290921c1690565b9094909350915050565b6000807f00000000000000000000000000000000000000000000000000000000000000006001600160a01b031663026b1d5f6040518163ffffffff1660e01b8152600401602060405180830381865afa15801561127e573d6000803e3d6000fd5b505050506040513d601f19601f820116820180604052508101906112a291906122a1565b6040516335ea6a7560e01b81526001600160a01b03858116600483015291909116906335ea6a75906024016101e060405180830381865afa1580156112eb573d6000803e3d6000fd5b505050506040513d601f19601f8201168201806040525081019061130f91906123cb565b90508061014001516001600160a01b03166318160ddd6040518163ffffffff1660e01b8152600401602060405180830381865afa158015611354573d6000803e3d6000fd5b505050506040513d601f19601f8201168201806040525081019061137891906124ee565b8161012001516001600160a01b03166318160ddd6040518163ffffffff1660e01b8152600401602060405180830381865afa1580156113bb573d6000803e3d6000fd5b505050506040513d601f19601f820116820180604052508101906113df91906124ee565b6104e89190612538565b6000807f00000000000000000000000000000000000000000000000000000000000000006001600160a01b031663026b1d5f6040518163ffffffff1660e01b8152600401602060405180830381865afa15801561144a573d6000803e3d6000fd5b505050506040513d601f19601f8201168201806040525081019061146e91906122a1565b6040516335ea6a7560e01b81526001600160a01b03858116600483015291909116906335ea6a75906024016101e060405180830381865afa1580156114b7573d6000803e3d6000fd5b505050506040513d601f19601f820116820180604052508101906114db91906123cb565b90508061010001516001600160a01b03166318160ddd6040518163ffffffff1660e01b8152600401602060405180830381865afa158015611520573d6000803e3d6000fd5b505050506040513d601f19601f820116820180604052508101906104e891906124ee565b6000807f00000000000000000000000000000000000000000000000000000000000000006001600160a01b031663026b1d5f6040518163ffffffff1660e01b8152600401602060405180830381865afa1580156115a5573d6000803e3d6000fd5b505050506040513d601f19601f820116820180604052508101906115c991906122a1565b6040516335ea6a7560e01b81526001600160a01b03858116600483015291909116906335ea6a75906024016101e060405180830381865afa158015611612573d6000803e3d6000fd5b505050506040513d601f19601f8201168201806040525081019061163691906123cb565b61016001519392505050565b6000610ea97f00000000000000000000000000000000000000000000000000000000000000006001600160a01b031663026b1d5f6040518163ffffffff1660e01b8152600401602060405180830381865afa1580156116a5573d6000803e3d6000fd5b505050506040513d601f19601f820116820180604052508101906116c991906122a1565b60405163c44b11f760e01b81526001600160a01b038581166004830152919091169063c44b11f790602401602060405180830381865afa158015611711573d6000803e3d6000fd5b505050506040513d601f19601f820116820180604052508101906117359190612371565b5160b01c640fffffffff1690565b606060007f00000000000000000000000000000000000000000000000000000000000000006001600160a01b031663026b1d5f6040518163ffffffff1660e01b8152600401602060405180830381865afa1580156117a5573d6000803e3d6000fd5b505050506040513d601f19601f820116820180604052508101906117c991906122a1565b90506000816001600160a01b031663d1946dbc6040518163ffffffff1660e01b8152600401600060405180830381865afa15801561180b573d6000803e3d6000fd5b505050506040513d6000823e601f3d908101601f191682016040526118339190810190612550565b90506000815167ffffffffffffffff811115611851576118516122be565b60405190808252806020026020018201604052801561189757816020015b60408051808201909152606081526000602082015281526020019060019003908161186f5790505b50905060005b8251811015611acb57739f8f72aa9304c8b593d555f12ef6589cc3a579a26001600160a01b03168382815181106118d6576118d6612602565b60200260200101516001600160a01b031614156119615760405180604001604052806040518060400160405280600381526020016226a5a960e91b815250815260200184838151811061192b5761192b612602565b60200260200101516001600160a01b031681525082828151811061195157611951612602565b6020026020010181905250611ab9565b73eeeeeeeeeeeeeeeeeeeeeeeeeeeeeeeeeeeeeeee6001600160a01b031683828151811061199157611991612602565b60200260200101516001600160a01b031614156119e65760405180604001604052806040518060400160405280600381526020016208aa8960eb1b815250815260200184838151811061192b5761192b612602565b6040518060400160405280848381518110611a0357611a03612602565b60200260200101516001600160a01b03166395d89b416040518163ffffffff1660e01b8152600401600060405180830381865afa158015611a48573d6000803e3d6000fd5b505050506040513d6000823e601f3d908101601f19168201604052611a709190810190612618565b8152602001848381518110611a8757611a87612602565b60200260200101516001600160a01b0316815250828281518110611aad57611aad612602565b60200260200101819052505b80611ac3816126ac565b91505061189d565b509392505050565b6000611bcb7f00000000000000000000000000000000000000000000000000000000000000006001600160a01b031663026b1d5f6040518163ffffffff1660e01b8152600401602060405180830381865afa158015611b36573d6000803e3d6000fd5b505050506040513d601f19601f82011682018060405250810190611b5a91906122a1565b60405163c44b11f760e01b81526001600160a01b038581166004830152919091169063c44b11f790602401602060405180830381865afa158015611ba2573d6000803e3d6000fd5b505050506040513d601f19601f82011682018060405250810190611bc69190612371565b612100565b9695505050505050565b6000806000807f00000000000000000000000000000000000000000000000000000000000000006001600160a01b031663026b1d5f6040518163ffffffff1660e01b8152600401602060405180830381865afa158015611c39573d6000803e3d6000fd5b505050506040513d601f19601f82011682018060405250810190611c5d91906122a1565b6040516335ea6a7560e01b81526001600160a01b03878116600483015291909116906335ea6a75906024016101e060405180830381865afa158015611ca6573d6000803e3d6000fd5b505050506040513d601f19601f82011682018060405250810190611cca91906123cb565b610100810151610120820151610140909201519097919650945092505050565b606060007f00000000000000000000000000000000000000000000000000000000000000006001600160a01b031663026b1d5f6040518163ffffffff1660e01b8152600401602060405180830381865afa158015611d4c573d6000803e3d6000fd5b505050506040513d601f19601f82011682018060405250810190611d7091906122a1565b90506000816001600160a01b031663d1946dbc6040518163ffffffff1660e01b8152600401600060405180830381865afa158015611db2573d6000803e3d6000fd5b505050506040513d6000823e601f3d908101601f19168201604052611dda9190810190612550565b90506000815167ffffffffffffffff811115611df857611df86122be565b604051908082528060200260200182016040528015611e3e57816020015b604080518082019091526060815260006020820152815260200190600190039081611e165790505b50905060005b8251811015611acb576000846001600160a01b03166335ea6a75858481518110611e7057611e70612602565b60200260200101516040518263ffffffff1660e01b8152600401611ea391906001600160a01b0391909116815260200190565b6101e060405180830381865afa158015611ec1573d6000803e3d6000fd5b505050506040513d601f19601f82011682018060405250810190611ee591906123cb565b905060405180604001604052808261010001516001600160a01b03166395d89b416040518163ffffffff1660e01b8152600401600060405180830381865afa158015611f35573d6000803e3d6000fd5b505050506040513d6000823e601f3d908101601f19168201604052611f5d9190810190612618565b81526020018261010001516001600160a01b0316815250838381518110611f8657611f86612602565b6020026020010181905250508080611f9d906126ac565b915050611e44565b6000610ea97f00000000000000000000000000000000000000000000000000000000000000006001600160a01b031663026b1d5f6040518163ffffffff1660e01b8152600401602060405180830381865afa158015612008573d6000803e3d6000fd5b505050506040513d601f19601f8201168201806040525081019061202c91906122a1565b60405163c44b11f760e01b81526001600160a01b038581166004830152919091169063c44b11f790602401602060405180830381865afa158015612074573d6000803e3d6000fd5b505050506040513d601f19601f820116820180604052508101906120989190612371565b5167400000000000000016151590565b6040805180820190915260028152610dcd60f21b6020820152600090608083106120ee5760405162461bcd60e51b81526004016120e591906126c7565b60405180910390fd5b50509051600191821b82011c16151590565b51670100000000000000811615159167020000000000000082161515916704000000000000008116151591670800000000000000821615159167100000000000000016151590565b6001600160a01b038116811461215d57600080fd5b50565b60006020828403121561217257600080fd5b81356104e881612148565b6000806040838503121561219057600080fd5b823561219b81612148565b915060208301356121ab81612148565b809150509250929050565b60005b838110156121d15781810151838201526020016121b9565b838111156121e0576000848401525b50505050565b600081518084526121fe8160208601602086016121b6565b601f01601f19169290920160200192915050565b60006020808301818452808551808352604092508286019150828160051b87010184880160005b8381101561228357888303603f190185528151805187855261225d888601826121e6565b918901516001600160a01b03169489019490945294870194925090860190600101612239565b509098975050505050505050565b805161229c81612148565b919050565b6000602082840312156122b357600080fd5b81516104e881612148565b634e487b7160e01b600052604160045260246000fd5b6040516101e0810167ffffffffffffffff811182821017156122f8576122f86122be565b60405290565b604051601f8201601f1916810167ffffffffffffffff81118282101715612327576123276122be565b604052919050565b60006020828403121561234157600080fd5b6040516020810181811067ffffffffffffffff82111715612364576123646122be565b6040529151825250919050565b60006020828403121561238357600080fd5b6104e8838361232f565b80516001600160801b038116811461229c57600080fd5b805164ffffffffff8116811461229c57600080fd5b805161ffff8116811461229c57600080fd5b60006101e082840312156123de57600080fd5b6123e66122d4565b6123f0848461232f565b81526123fe6020840161238d565b602082015261240f6040840161238d565b60408201526124206060840161238d565b60608201526124316080840161238d565b608082015261244260a0840161238d565b60a082015261245360c084016123a4565b60c082015261246460e084016123b9565b60e0820152610100612477818501612291565b90820152610120612489848201612291565b9082015261014061249b848201612291565b908201526101606124ad848201612291565b908201526101806124bf84820161238d565b908201526101a06124d184820161238d565b908201526101c06124e384820161238d565b908201529392505050565b60006020828403121561250057600080fd5b5051919050565b60006020828403121561251957600080fd5b6104e8826123a4565b634e487b7160e01b600052601160045260246000fd5b6000821982111561254b5761254b612522565b500190565b6000602080838503121561256357600080fd5b825167ffffffffffffffff8082111561257b57600080fd5b818501915085601f83011261258f57600080fd5b8151818111156125a1576125a16122be565b8060051b91506125b28483016122fe565b81815291830184019184810190888411156125cc57600080fd5b938501935b838510156125f657845192506125e683612148565b82825293850193908501906125d1565b98975050505050505050565b634e487b7160e01b600052603260045260246000fd5b60006020828403121561262a57600080fd5b815167ffffffffffffffff8082111561264257600080fd5b818401915084601f83011261265657600080fd5b815181811115612668576126686122be565b61267b601f8201601f19166020016122fe565b915080825285602082850101111561269257600080fd5b6126a38160208401602086016121b6565b50949350505050565b60006000198214156126c0576126c0612522565b5060010190565b6020815260006104e860208301846121e656fea26469706673582212209f3e87485e417f831618781c1d54cde0f85a4858570c8b2629134531dd2b559764736f6c634300080a0033",
  "devdoc": {
    "author": "Aave",
    "kind": "dev",
    "methods": {
      "getATokenTotalSupply(address)": {
        "params": {
          "asset": "The address of the underlying asset of the reserve"
        },
        "returns": {
          "_0": "The total supply of the aToken*"
        }
      },
      "getAllATokens()": {
        "returns": {
          "_0": "The list of ATokens, pairs of symbols and addresses"
        }
      },
      "getAllReservesTokens()": {
        "details": "Handling MKR and ETH in a different way since they do not have standard `symbol` functions.",
        "returns": {
          "_0": "The list of reserves, pairs of symbols and addresses"
        }
      },
      "getDebtCeiling(address)": {
        "params": {
          "asset": "The address of the underlying asset of the reserve"
        },
        "returns": {
          "_0": "The debt ceiling of the reserve*"
        }
      },
      "getDebtCeilingDecimals()": {
        "returns": {
          "_0": "The debt ceiling decimals*"
        }
      },
      "getInterestRateStrategyAddress(address)": {
        "params": {
          "asset": "The address of the underlying asset of the reserve"
        },
        "returns": {
          "irStrategyAddress": "The address of the Interest Rate strategy"
        }
      },
      "getLiquidationProtocolFee(address)": {
        "params": {
          "asset": "The address of the underlying asset of the reserve"
        },
        "returns": {
          "_0": "The protocol fee on liquidation*"
        }
      },
      "getPaused(address)": {
        "params": {
          "asset": "The address of the underlying asset of the reserve"
        },
        "returns": {
          "isPaused": "True if the pool is paused, false otherwise*"
        }
      },
      "getReserveCaps(address)": {
        "params": {
          "asset": "The address of the underlying asset of the reserve"
        },
        "returns": {
          "borrowCap": "The borrow cap of the reserve",
          "supplyCap": "The supply cap of the reserve*"
        }
      },
      "getReserveConfigurationData(address)": {
        "details": "Not returning borrow and supply caps for compatibility, nor pause flag",
        "params": {
          "asset": "The address of the underlying asset of the reserve"
        },
        "returns": {
          "borrowingEnabled": "True if borrowing is enabled, false otherwise",
          "decimals": "The number of decimals of the reserve",
          "isActive": "True if it is active, false otherwise",
          "isFrozen": "True if it is frozen, false otherwise*",
          "liquidationBonus": "The liquidationBonus of the reserve",
          "liquidationThreshold": "The liquidationThreshold of the reserve",
          "ltv": "The ltv of the reserve",
          "reserveFactor": "The reserveFactor of the reserve",
          "stableBorrowRateEnabled": "True if stable rate borrowing is enabled, false otherwise",
          "usageAsCollateralEnabled": "True if the usage as collateral is enabled, false otherwise"
        }
      },
      "getReserveData(address)": {
        "params": {
          "asset": "The address of the underlying asset of the reserve"
        },
        "returns": {
          "accruedToTreasuryScaled": "The scaled amount of tokens accrued to treasury that is to be minted",
          "averageStableBorrowRate": "The average stable borrow rate of the reserve",
          "lastUpdateTimestamp": "The timestamp of the last update of the reserve*",
          "liquidityIndex": "The liquidity index of the reserve",
          "liquidityRate": "The liquidity rate of the reserve",
          "stableBorrowRate": "The stable borrow rate of the reserve",
          "totalAToken": "The total supply of the aToken",
          "totalStableDebt": "The total stable debt of the reserve",
          "totalVariableDebt": "The total variable debt of the reserve",
          "unbacked": "The amount of unbacked tokens",
          "variableBorrowIndex": "The variable borrow index of the reserve",
          "variableBorrowRate": "The variable borrow rate of the reserve"
        }
      },
      "getReserveEModeCategory(address)": {
        "params": {
          "asset": "The address of the underlying asset of the reserve"
        },
        "returns": {
          "_0": "The eMode id of the reserve"
        }
      },
      "getReserveTokensAddresses(address)": {
        "params": {
          "asset": "The address of the underlying asset of the reserve"
        },
        "returns": {
          "aTokenAddress": "The AToken address of the reserve",
          "stableDebtTokenAddress": "The StableDebtToken address of the reserve",
          "variableDebtTokenAddress": "The VariableDebtToken address of the reserve"
        }
      },
      "getSiloedBorrowing(address)": {
        "params": {
          "asset": "The address of the underlying asset of the reserve"
        },
        "returns": {
          "_0": "True if the asset is siloed for borrowing*"
        }
      },
      "getTotalDebt(address)": {
        "params": {
          "asset": "The address of the underlying asset of the reserve"
        },
        "returns": {
          "_0": "The total debt for asset*"
        }
      },
      "getUnbackedMintCap(address)": {
        "params": {
          "asset": "The address of the underlying asset of the reserve"
        },
        "returns": {
          "_0": "The unbacked mint cap of the reserve*"
        }
      },
      "getUserReserveData(address,address)": {
        "params": {
          "asset": "The address of the underlying asset of the reserve",
          "user": "The address of the user"
        },
        "returns": {
          "currentATokenBalance": "The current AToken balance of the user",
          "currentStableDebt": "The current stable debt of the user",
          "currentVariableDebt": "The current variable debt of the user",
          "liquidityRate": "The liquidity rate of the reserve",
          "principalStableDebt": "The principal stable debt of the user",
          "scaledVariableDebt": "The scaled variable debt of the user",
          "stableBorrowRate": "The stable borrow rate of the user",
          "stableRateLastUpdated": "The timestamp of the last update of the user stable rate",
          "usageAsCollateralEnabled": "True if the user is using the asset as collateral, false         otherwise*"
        }
      }
    },
    "title": "AaveProtocolDataProvider",
    "version": 1
  },
  "userdoc": {
    "kind": "user",
    "methods": {
      "getATokenTotalSupply(address)": {
        "notice": "Returns the total supply of aTokens for a given asset"
      },
      "getAllATokens()": {
        "notice": "Returns the list of the existing ATokens in the pool."
      },
      "getAllReservesTokens()": {
        "notice": "Returns the list of the existing reserves in the pool."
      },
      "getDebtCeiling(address)": {
        "notice": "Returns the debt ceiling of the reserve"
      },
      "getDebtCeilingDecimals()": {
        "notice": "Returns the debt ceiling decimals"
      },
      "getInterestRateStrategyAddress(address)": {
        "notice": "Returns the address of the Interest Rate strategy"
      },
      "getLiquidationProtocolFee(address)": {
        "notice": "Returns the protocol fee on the liquidation bonus"
      },
      "getPaused(address)": {
        "notice": "Returns if the pool is paused"
      },
      "getReserveCaps(address)": {
        "notice": "Returns the caps parameters of the reserve"
      },
      "getReserveConfigurationData(address)": {
        "notice": "Returns the configuration data of the reserve"
      },
      "getReserveData(address)": {
        "notice": "Returns the reserve data"
      },
      "getReserveEModeCategory(address)": {
        "notice": "Returns the efficiency mode category of the reserve"
      },
      "getReserveTokensAddresses(address)": {
        "notice": "Returns the token addresses of the reserve"
      },
      "getSiloedBorrowing(address)": {
        "notice": "Returns the siloed borrowing flag"
      },
      "getTotalDebt(address)": {
        "notice": "Returns the total debt for a given asset"
      },
      "getUnbackedMintCap(address)": {
        "notice": "Returns the unbacked mint cap of the reserve"
      },
      "getUserReserveData(address,address)": {
        "notice": "Returns the user data in a reserve"
      }
    },
    "notice": "Peripheral contract to collect and pre-process information from the Pool.",
    "version": 1
  },
  "storageLayout": {
    "storage": [],
    "types": null
  }
}