{
  "address": "0x273de716baf6bf7a0541321edbc00c9dfd973889",
  "abi": [
    {
      "inputs": [
        {
          "internalType": "contract IPool",
          "name": "pool",
          "type": "address"
        }
      ],
      "stateMutability": "nonpayable",
      "type": "constructor"
    },
    {
      "anonymous": false,
      "inputs": [
        {
          "indexed": true,
          "internalType": "address",
          "name": "owner",
          "type": "address"
        },
        {
          "indexed": true,
          "internalType": "address",
          "name": "spender",
          "type": "address"
        },
        {
          "indexed": false,
          "internalType": "uint256",
          "name": "value",
          "type": "uint256"
        }
      ],
      "name": "Approval",
      "type": "event"
    },
    {
      "anonymous": false,
      "inputs": [
        {
          "indexed": true,
          "internalType": "address",
          "name": "fromUser",
          "type": "address"
        },
        {
          "indexed": true,
          "internalType": "address",
          "name": "toUser",
          "type": "address"
        },
        {
          "indexed": true,
          "internalType": "address",
          "name": "asset",
          "type": "address"
        },
        {
          "indexed": false,
          "internalType": "uint256",
          "name": "amount",
          "type": "uint256"
        }
      ],
      "name": "BorrowAllowanceDelegated",
      "type": "event"
    },
    {
      "anonymous": false,
      "inputs": [
        {
          "indexed": true,
          "internalType": "address",
          "name": "from",
          "type": "address"
        },
        {
          "indexed": true,
          "internalType": "address",
          "name": "target",
          "type": "address"
        },
        {
          "indexed": false,
          "internalType": "uint256",
          "name": "value",
          "type": "uint256"
        },
        {
          "indexed": false,
          "internalType": "uint256",
          "name": "balanceIncrease",
          "type": "uint256"
        },
        {
          "indexed": false,
          "internalType": "uint256",
          "name": "index",
          "type": "uint256"
        }
      ],
      "name": "Burn",
      "type": "event"
    },
    {
      "anonymous": false,
      "inputs": [
        {
          "indexed": true,
          "internalType": "address",
          "name": "underlyingAsset",
          "type": "address"
        },
        {
          "indexed": true,
          "internalType": "address",
          "name": "pool",
          "type": "address"
        },
        {
          "indexed": false,
          "internalType": "address",
          "name": "incentivesController",
          "type": "address"
        },
        {
          "indexed": false,
          "internalType": "uint8",
          "name": "debtTokenDecimals",
          "type": "uint8"
        },
        {
          "indexed": false,
          "internalType": "string",
          "name": "debtTokenName",
          "type": "string"
        },
        {
          "indexed": false,
          "internalType": "string",
          "name": "debtTokenSymbol",
          "type": "string"
        },
        {
          "indexed": false,
          "internalType": "bytes",
          "name": "params",
          "type": "bytes"
        }
      ],
      "name": "Initialized",
      "type": "event"
    },
    {
      "anonymous": false,
      "inputs": [
        {
          "indexed": true,
          "internalType": "address",
          "name": "caller",
          "type": "address"
        },
        {
          "indexed": true,
          "internalType": "address",
          "name": "onBehalfOf",
          "type": "address"
        },
        {
          "indexed": false,
          "internalType": "uint256",
          "name": "value",
          "type": "uint256"
        },
        {
          "indexed": false,
          "internalType": "uint256",
          "name": "balanceIncrease",
          "type": "uint256"
        },
        {
          "indexed": false,
          "internalType": "uint256",
          "name": "index",
          "type": "uint256"
        }
      ],
      "name": "Mint",
      "type": "event"
    },
    {
      "anonymous": false,
      "inputs": [
        {
          "indexed": true,
          "internalType": "address",
          "name": "from",
          "type": "address"
        },
        {
          "indexed": true,
          "internalType": "address",
          "name": "to",
          "type": "address"
        },
        {
          "indexed": false,
          "internalType": "uint256",
          "name": "value",
          "type": "uint256"
        }
      ],
      "name": "Transfer",
      "type": "event"
    },
    {
      "inputs": [],
      "name": "DEBT_TOKEN_REVISION",
      "outputs": [
        {
          "internalType": "uint256",
          "name": "",
          "type": "uint256"
        }
      ],
      "stateMutability": "view",
      "type": "function"
    },
    {
      "inputs": [],
      "name": "DELEGATION_WITH_SIG_TYPEHASH",
      "outputs": [
        {
          "internalType": "bytes32",
          "name": "",
          "type": "bytes32"
        }
      ],
      "stateMutability": "view",
      "type": "function"
    },
    {
      "inputs": [],
      "name": "DOMAIN_SEPARATOR",
      "outputs": [
        {
          "internalType": "bytes32",
          "name": "",
          "type": "bytes32"
        }
      ],
      "stateMutability": "view",
      "type": "function"
    },
    {
      "inputs": [],
      "name": "EIP712_REVISION",
      "outputs": [
        {
          "internalType": "bytes",
          "name": "",
          "type": "bytes"
        }
      ],
      "stateMutability": "view",
      "type": "function"
    },
    {
      "inputs": [],
      "name": "POOL",
      "outputs": [
        {
          "internalType": "contract IPool",
          "name": "",
          "type": "address"
        }
      ],
      "stateMutability": "view",
      "type": "function"
    },
    {
      "inputs": [],
      "name": "UNDERLYING_ASSET_ADDRESS",
      "outputs": [
        {
          "internalType": "address",
          "name": "",
          "type": "address"
        }
      ],
      "stateMutability": "view",
      "type": "function"
    },
    {
      "inputs": [
        {
          "internalType": "address",
          "name": "",
          "type": "address"
        },
        {
          "internalType": "address",
          "name": "",
          "type": "address"
        }
      ],
      "name": "allowance",
      "outputs": [
        {
          "internalType": "uint256",
          "name": "",
          "type": "uint256"
        }
      ],
      "stateMutability": "view",
      "type": "function"
    },
    {
      "inputs": [
        {
          "internalType": "address",
          "name": "",
          "type": "address"
        },
        {
          "internalType": "uint256",
          "name": "",
          "type": "uint256"
        }
      ],
      "name": "approve",
      "outputs": [
        {
          "internalType": "bool",
          "name": "",
          "type": "bool"
        }
      ],
      "stateMutability": "nonpayable",
      "type": "function"
    },
    {
      "inputs": [
        {
          "internalType": "address",
          "name": "delegatee",
          "type": "address"
        },
        {
          "internalType": "uint256",
          "name": "amount",
          "type": "uint256"
        }
      ],
      "name": "approveDelegation",
      "outputs": [],
      "stateMutability": "nonpayable",
      "type": "function"
    },
    {
      "inputs": [
        {
          "internalType": "address",
          "name": "user",
          "type": "address"
        }
      ],
      "name": "balanceOf",
      "outputs": [
        {
          "internalType": "uint256",
          "name": "",
          "type": "uint256"
        }
      ],
      "stateMutability": "view",
      "type": "function"
    },
    {
      "inputs": [
        {
          "internalType": "address",
          "name": "fromUser",
          "type": "address"
        },
        {
          "internalType": "address",
          "name": "toUser",
          "type": "address"
        }
      ],
      "name": "borrowAllowance",
      "outputs": [
        {
          "internalType": "uint256",
          "name": "",
          "type": "uint256"
        }
      ],
      "stateMutability": "view",
      "type": "function"
    },
    {
      "inputs": [
        {
          "internalType": "address",
          "name": "from",
          "type": "address"
        },
        {
          "internalType": "uint256",
          "name": "amount",
          "type": "uint256"
        },
        {
          "internalType": "uint256",
          "name": "index",
          "type": "uint256"
        }
      ],
      "name": "burn",
      "outputs": [
        {
          "internalType": "uint256",
          "name": "",
          "type": "uint256"
        }
      ],
      "stateMutability": "nonpayable",
      "type": "function"
    },
    {
      "inputs": [],
      "name": "decimals",
      "outputs": [
        {
          "internalType": "uint8",
          "name": "",
          "type": "uint8"
        }
      ],
      "stateMutability": "view",
      "type": "function"
    },
    {
      "inputs": [
        {
          "internalType": "address",
          "name": "",
          "type": "address"
        },
        {
          "internalType": "uint256",
          "name": "",
          "type": "uint256"
        }
      ],
      "name": "decreaseAllowance",
      "outputs": [
        {
          "internalType": "bool",
          "name": "",
          "type": "bool"
        }
      ],
      "stateMutability": "nonpayable",
      "type": "function"
    },
    {
      "inputs": [
        {
          "internalType": "address",
          "name": "delegator",
          "type": "address"
        },
        {
          "internalType": "address",
          "name": "delegatee",
          "type": "address"
        },
        {
          "internalType": "uint256",
          "name": "value",
          "type": "uint256"
        },
        {
          "internalType": "uint256",
          "name": "deadline",
          "type": "uint256"
        },
        {
          "internalType": "uint8",
          "name": "v",
          "type": "uint8"
        },
        {
          "internalType": "bytes32",
          "name": "r",
          "type": "bytes32"
        },
        {
          "internalType": "bytes32",
          "name": "s",
          "type": "bytes32"
        }
      ],
      "name": "delegationWithSig",
      "outputs": [],
      "stateMutability": "nonpayable",
      "type": "function"
    },
    {
      "inputs": [],
      "name": "getIncentivesController",
      "outputs": [
        {
          "internalType": "contract IAaveIncentivesController",
          "name": "",
          "type": "address"
        }
      ],
      "stateMutability": "view",
      "type": "function"
    },
    {
      "inputs": [
        {
          "internalType": "address",
          "name": "user",
          "type": "address"
        }
      ],
      "name": "getPreviousIndex",
      "outputs": [
        {
          "internalType": "uint256",
          "name": "",
          "type": "uint256"
        }
      ],
      "stateMutability": "view",
      "type": "function"
    },
    {
      "inputs": [
        {
          "internalType": "address",
          "name": "user",
          "type": "address"
        }
      ],
      "name": "getScaledUserBalanceAndSupply",
      "outputs": [
        {
          "internalType": "uint256",
          "name": "",
          "type": "uint256"
        },
        {
          "internalType": "uint256",
          "name": "",
          "type": "uint256"
        }
      ],
      "stateMutability": "view",
      "type": "function"
    },
    {
      "inputs": [
        {
          "internalType": "address",
          "name": "",
          "type": "address"
        },
        {
          "internalType": "uint256",
          "name": "",
          "type": "uint256"
        }
      ],
      "name": "increaseAllowance",
      "outputs": [
        {
          "internalType": "bool",
          "name": "",
          "type": "bool"
        }
      ],
      "stateMutability": "nonpayable",
      "type": "function"
    },
    {
      "inputs": [
        {
          "internalType": "contract IPool",
          "name": "initializingPool",
          "type": "address"
        },
        {
          "internalType": "address",
          "name": "underlyingAsset",
          "type": "address"
        },
        {
          "internalType": "contract IAaveIncentivesController",
          "name": "incentivesController",
          "type": "address"
        },
        {
          "internalType": "uint8",
          "name": "debtTokenDecimals",
          "type": "uint8"
        },
        {
          "internalType": "string",
          "name": "debtTokenName",
          "type": "string"
        },
        {
          "internalType": "string",
          "name": "debtTokenSymbol",
          "type": "string"
        },
        {
          "internalType": "bytes",
          "name": "params",
          "type": "bytes"
        }
      ],
      "name": "initialize",
      "outputs": [],
      "stateMutability": "nonpayable",
      "type": "function"
    },
    {
      "inputs": [
        {
          "internalType": "address",
          "name": "user",
          "type": "address"
        },
        {
          "internalType": "address",
          "name": "onBehalfOf",
          "type": "address"
        },
        {
          "internalType": "uint256",
          "name": "amount",
          "type": "uint256"
        },
        {
          "internalType": "uint256",
          "name": "index",
          "type": "uint256"
        }
      ],
      "name": "mint",
      "outputs": [
        {
          "internalType": "bool",
          "name": "",
          "type": "bool"
        },
        {
          "internalType": "uint256",
          "name": "",
          "type": "uint256"
        }
      ],
      "stateMutability": "nonpayable",
      "type": "function"
    },
    {
      "inputs": [],
      "name": "name",
      "outputs": [
        {
          "internalType": "string",
          "name": "",
          "type": "string"
        }
      ],
      "stateMutability": "view",
      "type": "function"
    },
    {
      "inputs": [
        {
          "internalType": "address",
          "name": "owner",
          "type": "address"
        }
      ],
      "name": "nonces",
      "outputs": [
        {
          "internalType": "uint256",
          "name": "",
          "type": "uint256"
        }
      ],
      "stateMutability": "view",
      "type": "function"
    },
    {
      "inputs": [
        {
          "internalType": "address",
          "name": "user",
          "type": "address"
        }
      ],
      "name": "scaledBalanceOf",
      "outputs": [
        {
          "internalType": "uint256",
          "name": "",
          "type": "uint256"
        }
      ],
      "stateMutability": "view",
      "type": "function"
    },
    {
      "inputs": [],
      "name": "scaledTotalSupply",
      "outputs": [
        {
          "internalType": "uint256",
          "name": "",
          "type": "uint256"
        }
      ],
      "stateMutability": "view",
      "type": "function"
    },
    {
      "inputs": [
        {
          "internalType": "contract IAaveIncentivesController",
          "name": "controller",
          "type": "address"
        }
      ],
      "name": "setIncentivesController",
      "outputs": [],
      "stateMutability": "nonpayable",
      "type": "function"
    },
    {
      "inputs": [],
      "name": "symbol",
      "outputs": [
        {
          "internalType": "string",
          "name": "",
          "type": "string"
        }
      ],
      "stateMutability": "view",
      "type": "function"
    },
    {
      "inputs": [],
      "name": "totalSupply",
      "outputs": [
        {
          "internalType": "uint256",
          "name": "",
          "type": "uint256"
        }
      ],
      "stateMutability": "view",
      "type": "function"
    },
    {
      "inputs": [
        {
          "internalType": "address",
          "name": "",
          "type": "address"
        },
        {
          "internalType": "uint256",
          "name": "",
          "type": "uint256"
        }
      ],
      "name": "transfer",
      "outputs": [
        {
          "internalType": "bool",
          "name": "",
          "type": "bool"
        }
      ],
      "stateMutability": "nonpayable",
      "type": "function"
    },
    {
      "inputs": [
        {
          "internalType": "address",
          "name": "",
          "type": "address"
        },
        {
          "internalType": "address",
          "name": "",
          "type": "address"
        },
        {
          "internalType": "uint256",
          "name": "",
          "type": "uint256"
        }
      ],
      "name": "transferFrom",
      "outputs": [
        {
          "internalType": "bool",
          "name": "",
          "type": "bool"
        }
      ],
      "stateMutability": "nonpayable",
      "type": "function"
    }
  ],
  "transactionHash": "0xcb54a757678380815bf610fd43e47429dd768801fc32a291401b02daff821eef",
  "args": [
    "0xFA34568423aaAF481341f11BAC6C941668bEDBC2"
  ],
  "numDeployments": 1,
  "solcInputHash": "859a23405950d1edc8948f26899cd37c",
  "bytecode": "0x60e0604052600080553480156200001557600080fd5b5060405162001fce38038062001fce833981016040819052620000389162000245565b806040518060400160405280601881526020017f5641524941424c455f444542545f544f4b454e5f494d504c00000000000000008152506040518060400160405280601881526020017f5641524941424c455f444542545f544f4b454e5f494d504c0000000000000000815250600083838383838383834660808181525050836001600160a01b0316630542975c6040518163ffffffff1660e01b8152600401602060405180830381865afa158015620000f6573d6000803e3d6000fd5b505050506040513d601f19601f820116820180604052508101906200011c919062000245565b6001600160a01b031660a05282516200013d90603b90602086019062000186565b5081516200015390603c90602085019062000186565b50603d805460ff191660ff9290921691909117905550506001600160a01b031660c05250620002a9975050505050505050565b82805462000194906200026c565b90600052602060002090601f016020900481019282620001b8576000855562000203565b82601f10620001d357805160ff191683800117855562000203565b8280016001018555821562000203579182015b8281111562000203578251825591602001919060010190620001e6565b506200021192915062000215565b5090565b5b8082111562000211576000815560010162000216565b6001600160a01b03811681146200024257600080fd5b50565b6000602082840312156200025857600080fd5b815162000265816200022c565b9392505050565b600181811c908216806200028157607f821691505b60208210811415620002a357634e487b7160e01b600052602260045260246000fd5b50919050565b60805160a05160c051611ccb6200030360003960008181610302015281816107e1015281816108e80152818161099c01528181610ad801528181610ba70152610da701526000610c3b015260006108710152611ccb6000f3fe608060405234801561001057600080fd5b50600436106101da5760003560e01c80637ecebe0011610104578063b9a7b622116100a2578063e075398611610071578063e075398614610422578063e655dbd81461045b578063f3bfc7381461046e578063f5298aca1461049557600080fd5b8063b9a7b622146103e6578063c04a8a10146103ee578063c222ec8a14610401578063dd62ed3e1461041457600080fd5b8063a9059cbb116100de578063a9059cbb146101fd578063b16a19de146103a3578063b1bf962d146103b4578063b3f1c93d146103bc57600080fd5b80637ecebe001461037257806395d89b411461039b578063a457c2d7146101fd57600080fd5b8063313ce5671161017c57806370a082311161014b57806370a08231146102ea5780637535d246146102fd57806375d264131461033c578063781603761461035257600080fd5b8063313ce567146102945780633644e515146102a957806339509351146101fd5780636bd76d24146102b157600080fd5b80630b52d558116101b85780630b52d5581461024857806318160ddd1461025d5780631da24f3e1461027357806323b872dd1461028657600080fd5b806306fdde03146101df578063095ea7b3146101fd5780630afbcdc914610220575b600080fd5b6101e76104a8565b6040516101f4919061173a565b60405180910390f35b61021061020b366004611775565b61053a565b60405190151581526020016101f4565b61023361022e3660046117a1565b610575565b604080519283526020830191909152016101f4565b61025b6102563660046117cf565b61058d565b005b6102656107b8565b6040519081526020016101f4565b6102656102813660046117a1565b61085c565b61021061020b36600461183d565b603d5460405160ff90911681526020016101f4565b61026561086d565b6102656102bf36600461187e565b6001600160a01b03918216600090815260366020908152604080832093909416825291909152205490565b6102656102f83660046117a1565b6108a6565b6103247f000000000000000000000000000000000000000000000000000000000000000081565b6040516001600160a01b0390911681526020016101f4565b603d5461010090046001600160a01b0316610324565b6101e7604051806040016040528060018152602001603160f81b81525081565b6102656103803660046117a1565b6001600160a01b031660009081526034602052604090205490565b6101e7610961565b6037546001600160a01b0316610324565b610265610970565b6103cf6103ca3660046118b7565b61097b565b6040805192151583526020830191909152016101f4565b610265600181565b61025b6103fc366004611775565b610a28565b61025b61040f3660046119e9565b610a37565b61026561020b36600461187e565b6102656104303660046117a1565b6001600160a01b0316600090815260386020526040902054600160801b90046001600160801b031690565b61025b6104693660046117a1565b610c37565b6102657f323db0410fecc107e39e2af5908671f4c8d106123b35a51501bb805c5fa36aa081565b6102656104a3366004611abe565b610d88565b6060603b80546104b790611af3565b80601f01602080910402602001604051908101604052809291908181526020018280546104e390611af3565b80156105305780601f1061050557610100808354040283529160200191610530565b820191906000526020600020905b81548152906001019060200180831161051357829003601f168201915b5050505050905090565b6040805180820182526002815261038360f41b6020820152905162461bcd60e51b815260009161056c9160040161173a565b60405180910390fd5b60008061058183610e0b565b603a5491509150915091565b604080518082019091526002815261373760f01b60208201526001600160a01b0388166105cd5760405162461bcd60e51b815260040161056c919061173a565b50834211156040518060400160405280600281526020016106e760f31b8152509061060b5760405162461bcd60e51b815260040161056c919061173a565b506001600160a01b0387166000908152603460205260408120549061062e61086d565b604080517f323db0410fecc107e39e2af5908671f4c8d106123b35a51501bb805c5fa36aa060208201526001600160a01b038b1691810191909152606081018990526080810184905260a0810188905260c001604051602081830303815290604052805190602001206040516020016106be92919061190160f01b81526002810192909252602282015260420190565b60408051601f1981840301815282825280516020918201206000845290830180835281905260ff8816918301919091526060820186905260808201859052915060019060a0016020604051602081039080840390855afa158015610726573d6000803e3d6000fd5b505050602060405103516001600160a01b0316896001600160a01b03161460405180604001604052806002815260200161373960f01b8152509061077d5760405162461bcd60e51b815260040161056c919061173a565b50610789826001611b44565b6001600160a01b038a166000908152603460205260409020556107ad898989610e2f565b505050505050505050565b60375460405163386497fd60e01b81526001600160a01b039182166004820152600091610857917f00000000000000000000000000000000000000000000000000000000000000009091169063386497fd90602401602060405180830381865afa15801561082a573d6000803e3d6000fd5b505050506040513d601f19601f8201168201806040525081019061084e9190611b5c565b603a5490610e99565b905090565b600061086782610e0b565b92915050565b60007f000000000000000000000000000000000000000000000000000000000000000046141561089e575060355490565b610857610edd565b6000806108b283610e0b565b9050806108c25750600092915050565b60375460405163386497fd60e01b81526001600160a01b03918216600482015261095a917f0000000000000000000000000000000000000000000000000000000000000000169063386497fd90602401602060405180830381865afa15801561092f573d6000803e3d6000fd5b505050506040513d601f19601f820116820180604052508101906109539190611b5c565b8290610e99565b9392505050565b6060603c80546104b790611af3565b6000610857603a5490565b604080518082019091526002815261323360f01b60208201526000908190337f00000000000000000000000000000000000000000000000000000000000000006001600160a01b0316146109e25760405162461bcd60e51b815260040161056c919061173a565b50846001600160a01b0316866001600160a01b031614610a0757610a07858786610f86565b610a138686868661102c565b610a1b610970565b9150915094509492505050565b610a33338383610e2f565b5050565b6001805460ff1680610a485750303b155b80610a54575060005481115b610ab75760405162461bcd60e51b815260206004820152602e60248201527f436f6e747261637420696e7374616e63652068617320616c726561647920626560448201526d195b881a5b9a5d1a585b1a5e995960921b606482015260840161056c565b60015460ff16158015610ad6576001805460ff19168117905560008290555b7f00000000000000000000000000000000000000000000000000000000000000006001600160a01b03168a6001600160a01b03161460405180604001604052806002815260200161383760f01b81525090610b445760405162461bcd60e51b815260040161056c919061173a565b50610b4e866111d5565b610b57856111e8565b603d8054603780546001600160a01b038d81166001600160a01b0319909216919091179091558a16610100026001600160a81b031990911660ff8a1617179055610b9f610edd565b6035819055507f00000000000000000000000000000000000000000000000000000000000000006001600160a01b0316896001600160a01b03167f40251fbfb6656cfa65a00d7879029fec1fad21d28fdcff2f4f68f52795b74f2c8a8a8a8a8a8a604051610c1296959493929190611b75565b60405180910390a38015610c2b576001805460ff191690555b50505050505050505050565b60007f00000000000000000000000000000000000000000000000000000000000000006001600160a01b031663707cd7166040518163ffffffff1660e01b8152600401602060405180830381865afa158015610c97573d6000803e3d6000fd5b505050506040513d601f19601f82011682018060405250810190610cbb9190611bec565b604051637be53ca160e01b81523360048201529091506001600160a01b03821690637be53ca190602401602060405180830381865afa158015610d02573d6000803e3d6000fd5b505050506040513d601f19601f82011682018060405250810190610d269190611c09565b604051806040016040528060018152602001603160f81b81525090610d5e5760405162461bcd60e51b815260040161056c919061173a565b5050603d80546001600160a01b0390921661010002610100600160a81b0319909216919091179055565b604080518082019091526002815261323360f01b6020820152600090337f00000000000000000000000000000000000000000000000000000000000000006001600160a01b031614610ded5760405162461bcd60e51b815260040161056c919061173a565b50610dfb84600085856111fb565b610e03610970565b949350505050565b6001600160a01b03166000908152603860205260409020546001600160801b031690565b6001600160a01b0383811660008181526036602090815260408083208786168085529083529281902086905560375490518681529416939192917fda919360433220e13b51e8c211e490d148e61a3bd53de8c097194e458b97f3e1910160405180910390a4505050565b600081156b019d971e4fe8401e740000001983900484111517610ebb57600080fd5b506b033b2e3c9fd0803ce800000091026b019d971e4fe8401e74000000010490565b60007f8b73c3c69bb8fe3d512ecc4cf759cc79239f7b179b0ffacaa9a75d522b39400f610f08611459565b805160209182012060408051808201825260018152603160f81b90840152805192830193909352918101919091527fc89efdaa54c0f20c7adf612882df0950f5a951637e0307cdcb4c672f298b8bc660608201524660808201523060a082015260c00160405160208183030381529060405280519060200120905090565b6001600160a01b038084166000908152603660209081526040808320938616835292905290812054610fb9908390611c2b565b6001600160a01b03808616600081815260366020908152604080832089861680855292529182902085905560375491519495509216927fda919360433220e13b51e8c211e490d148e61a3bd53de8c097194e458b97f3e19061101e9086815260200190565b60405180910390a450505050565b6000806110398484611463565b6040805180820190915260028152610c8d60f21b6020820152909150816110735760405162461bcd60e51b815260040161056c919061173a565b50600061107f86610e0b565b6001600160a01b038716600090815260386020526040812054919250906110b7908390600160801b90046001600160801b0316610e99565b6110c18387610e99565b6110cb9190611c2b565b90506110d6856114a2565b6001600160a01b038816600090815260386020526040902080546001600160801b03928316600160801b02921691909117905561111b87611116856114a2565b61150f565b60006111278288611b44565b9050876001600160a01b031660006001600160a01b03167fddf252ad1be2c89b69c2b068fc378daa952ba7f163c4a11628f55a4df523b3ef8360405161116f91815260200190565b60405180910390a360408051828152602081018490529081018790526001600160a01b03808a1691908b16907f458f5fa412d0f69b08dd84872b0215675cc67bc1d5b6fd93300a1c3878b861969060600160405180910390a35050159695505050505050565b8051610a3390603b90602084019061165d565b8051610a3390603c90602084019061165d565b60006112078383611463565b604080518082019091526002815261323560f01b6020820152909150816112415760405162461bcd60e51b815260040161056c919061173a565b50600061124d86610e0b565b6001600160a01b03871660009081526038602052604081205491925090611285908390600160801b90046001600160801b0316610e99565b61128f8386610e99565b6112999190611c2b565b90506112a4846114a2565b6001600160a01b038816600090815260386020526040902080546001600160801b03928316600160801b0292169190911790556112e9876112e4856114a2565b611618565b848111156113a15760006112fd8683611c2b565b9050876001600160a01b031660006001600160a01b03167fddf252ad1be2c89b69c2b068fc378daa952ba7f163c4a11628f55a4df523b3ef8360405161134591815260200190565b60405180910390a360408051828152602081018490529081018690526001600160a01b0389169081907f458f5fa412d0f69b08dd84872b0215675cc67bc1d5b6fd93300a1c3878b861969060600160405180910390a350611450565b60006113ad8287611c2b565b905060006001600160a01b0316886001600160a01b03167fddf252ad1be2c89b69c2b068fc378daa952ba7f163c4a11628f55a4df523b3ef836040516113f591815260200190565b60405180910390a360408051828152602081018490529081018690526001600160a01b0380891691908a16907f4cf25bc1d991c17529c25213d3cc0cda295eeaad5f13f361969b12ea48015f909060600160405180910390a3505b50505050505050565b60606108576104a8565b600081156b033b2e3c9fd0803ce80000006002840419048411171561148757600080fd5b506b033b2e3c9fd0803ce80000009190910260028204010490565b60006001600160801b0382111561150b5760405162461bcd60e51b815260206004820152602760248201527f53616665436173743a2076616c756520646f65736e27742066697420696e20316044820152663238206269747360c81b606482015260840161056c565b5090565b603a546115256001600160801b03831682611b44565b603a556001600160a01b0383166000908152603860205260409020546001600160801b03166115548382611c42565b6001600160a01b03858116600090815260386020526040902080546fffffffffffffffffffffffffffffffff19166001600160801b039390931692909217909155603d546101009004168015611611576040516318c39f1760e11b81526001600160a01b038681166004830152602482018590526001600160801b03841660448301528216906331873e2e90606401600060405180830381600087803b1580156115fd57600080fd5b505af11580156107ad573d6000803e3d6000fd5b5050505050565b603a5461162e6001600160801b03831682611c2b565b603a556001600160a01b0383166000908152603860205260409020546001600160801b03166115548382611c6d565b82805461166990611af3565b90600052602060002090601f01602090048101928261168b57600085556116d1565b82601f106116a457805160ff19168380011785556116d1565b828001600101855582156116d1579182015b828111156116d15782518255916020019190600101906116b6565b5061150b9291505b8082111561150b57600081556001016116d9565b6000815180845260005b81811015611713576020818501810151868301820152016116f7565b81811115611725576000602083870101525b50601f01601f19169290920160200192915050565b60208152600061095a60208301846116ed565b6001600160a01b038116811461176257600080fd5b50565b80356117708161174d565b919050565b6000806040838503121561178857600080fd5b82356117938161174d565b946020939093013593505050565b6000602082840312156117b357600080fd5b813561095a8161174d565b803560ff8116811461177057600080fd5b600080600080600080600060e0888a0312156117ea57600080fd5b87356117f58161174d565b965060208801356118058161174d565b95506040880135945060608801359350611821608089016117be565b925060a0880135915060c0880135905092959891949750929550565b60008060006060848603121561185257600080fd5b833561185d8161174d565b9250602084013561186d8161174d565b929592945050506040919091013590565b6000806040838503121561189157600080fd5b823561189c8161174d565b915060208301356118ac8161174d565b809150509250929050565b600080600080608085870312156118cd57600080fd5b84356118d88161174d565b935060208501356118e88161174d565b93969395505050506040820135916060013590565b634e487b7160e01b600052604160045260246000fd5b600082601f83011261192457600080fd5b813567ffffffffffffffff8082111561193f5761193f6118fd565b604051601f8301601f19908116603f01168101908282118183101715611967576119676118fd565b8160405283815286602085880101111561198057600080fd5b836020870160208301376000602085830101528094505050505092915050565b60008083601f8401126119b257600080fd5b50813567ffffffffffffffff8111156119ca57600080fd5b6020830191508360208285010111156119e257600080fd5b9250929050565b60008060008060008060008060e0898b031215611a0557600080fd5b8835611a108161174d565b97506020890135611a208161174d565b9650611a2e60408a01611765565b9550611a3c60608a016117be565b9450608089013567ffffffffffffffff80821115611a5957600080fd5b611a658c838d01611913565b955060a08b0135915080821115611a7b57600080fd5b611a878c838d01611913565b945060c08b0135915080821115611a9d57600080fd5b50611aaa8b828c016119a0565b999c989b5096995094979396929594505050565b600080600060608486031215611ad357600080fd5b8335611ade8161174d565b95602085013595506040909401359392505050565b600181811c90821680611b0757607f821691505b60208210811415611b2857634e487b7160e01b600052602260045260246000fd5b50919050565b634e487b7160e01b600052601160045260246000fd5b60008219821115611b5757611b57611b2e565b500190565b600060208284031215611b6e57600080fd5b5051919050565b6001600160a01b038716815260ff8616602082015260a060408201819052600090611ba2908301876116ed565b8281036060840152611bb481876116ed565b90508281036080840152838152838560208301376000602085830101526020601f19601f860116820101915050979650505050505050565b600060208284031215611bfe57600080fd5b815161095a8161174d565b600060208284031215611c1b57600080fd5b8151801515811461095a57600080fd5b600082821015611c3d57611c3d611b2e565b500390565b60006001600160801b03808316818516808303821115611c6457611c64611b2e565b01949350505050565b60006001600160801b0383811690831681811015611c8d57611c8d611b2e565b03939250505056fea26469706673582212203ae13ef3f0a92af7c32954e6429fba9b1b485ab8103f21f0559d742845f5453364736f6c634300080a0033",
  "devdoc": {
    "author": "Aave",
    "details": "Transfer and approve functionalities are disabled since its a non-transferable token*",
    "kind": "dev",
    "methods": {
      "DOMAIN_SEPARATOR()": {
        "details": "Return cached value if chainId matches cache, otherwise recomputes separator",
        "returns": {
          "_0": "The domain separator of the token at current chain"
        }
      },
      "UNDERLYING_ASSET_ADDRESS()": {
        "returns": {
          "_0": "The address of the underlying asset*"
        }
      },
      "approveDelegation(address,uint256)": {
        "params": {
          "amount": "The maximum amount being delegated.*",
          "delegatee": "The address receiving the delegated borrowing power"
        }
      },
      "balanceOf(address)": {
        "details": "Returns the amount of tokens owned by `account`."
      },
      "borrowAllowance(address,address)": {
        "params": {
          "fromUser": "The user to giving allowance",
          "toUser": "The user to give allowance to"
        },
        "returns": {
          "_0": "The current allowance of `toUser`*"
        }
      },
      "burn(address,uint256,uint256)": {
        "details": "In some instances, a burn transaction will emit a mint event if the amount to burn is less than the interest that the user accrued",
        "params": {
          "amount": "The amount getting burned",
          "from": "The address from which the debt will be burned",
          "index": "The variable debt index of the reserve"
        },
        "returns": {
          "_0": "The scaled total debt of the reserve*"
        }
      },
      "constructor": {
        "details": "Constructor.",
        "params": {
          "pool": "The address of the Pool contract"
        }
      },
      "delegationWithSig(address,address,uint256,uint256,uint8,bytes32,bytes32)": {
        "params": {
          "deadline": "The deadline timestamp, type(uint256).max for max deadline",
          "delegatee": "The delegatee that can use the credit",
          "delegator": "The delegator of the credit",
          "r": "The R signature param",
          "s": "The S signature param",
          "v": "The V signature param",
          "value": "The amount to be delegated"
        }
      },
      "getIncentivesController()": {
        "returns": {
          "_0": "The address of the Incentives Controller*"
        }
      },
      "getPreviousIndex(address)": {
        "params": {
          "user": "The address of the user"
        },
        "returns": {
          "_0": "The last index interest was accrued to the user's balance, expressed in ray*"
        }
      },
      "getScaledUserBalanceAndSupply(address)": {
        "params": {
          "user": "The address of the user"
        },
        "returns": {
          "_0": "The scaled balance of the user",
          "_1": "The scaled total supply*"
        }
      },
      "initialize(address,address,address,uint8,string,string,bytes)": {
        "params": {
          "debtTokenDecimals": "The decimals of the debtToken, same as the underlying asset's",
          "debtTokenName": "The name of the token",
          "debtTokenSymbol": "The symbol of the token",
          "incentivesController": "The smart contract managing potential incentives distribution",
          "params": "A set of encoded parameters for additional initialization",
          "pool": "The pool contract that is initializing this contract",
          "underlyingAsset": "The address of the underlying asset of this aToken (E.g. WETH for aWETH)"
        }
      },
      "mint(address,address,uint256,uint256)": {
        "params": {
          "amount": "The amount of debt being minted",
          "index": "The variable debt index of the reserve",
          "onBehalfOf": "The address receiving the debt tokens",
          "user": "The address receiving the borrowed underlying, being the delegatee in case of credit delegate, or same as `onBehalfOf` otherwise"
        },
        "returns": {
          "_0": "True if the previous balance of the user is 0, false otherwise",
          "_1": "The scaled total debt of the reserve*"
        }
      },
      "nonces(address)": {
        "params": {
          "owner": "The address for which the nonce is being returned"
        },
        "returns": {
          "_0": "The nonce value for the input address`"
        }
      },
      "scaledBalanceOf(address)": {
        "details": "The scaled balance is the sum of all the updated stored balance divided by the reserve's liquidity index at the moment of the update",
        "params": {
          "user": "The user whose balance is calculated"
        },
        "returns": {
          "_0": "The scaled balance of the user*"
        }
      },
      "scaledTotalSupply()": {
        "returns": {
          "_0": "The scaled total supply*"
        }
      },
      "setIncentivesController(address)": {
        "params": {
          "controller": "the new Incentives controller*"
        }
      },
      "totalSupply()": {
        "details": "Returns the amount of tokens in existence."
      },
      "transfer(address,uint256)": {
        "details": "Being non transferrable, the debt token does not implement any of the standard ERC20 functions for transfer and allowance.*"
      }
    },
    "title": "VariableDebtToken",
    "version": 1
  },
  "userdoc": {
    "kind": "user",
    "methods": {
      "DOMAIN_SEPARATOR()": {
        "notice": "Get the domain separator for the token"
      },
      "UNDERLYING_ASSET_ADDRESS()": {
        "notice": "Returns the address of the underlying asset of this debtToken (E.g. WETH for variableDebtWETH)"
      },
      "approveDelegation(address,uint256)": {
        "notice": "Delegates borrowing power to a user on the specific debt token. Delegation will still respect the liquidation constraints (even if delegated, a delegatee cannot force a delegator HF to go below 1)"
      },
      "borrowAllowance(address,address)": {
        "notice": "Returns the borrow allowance of the user"
      },
      "burn(address,uint256,uint256)": {
        "notice": "Burns user variable debt"
      },
      "delegationWithSig(address,address,uint256,uint256,uint8,bytes32,bytes32)": {
        "notice": "Delegates borrowing power to a user on the specific debt token via ERC712 signature"
      },
      "getIncentivesController()": {
        "notice": "Returns the address of the Incentives Controller contract"
      },
      "getPreviousIndex(address)": {
        "notice": "Returns last index interest was accrued to the user's balance"
      },
      "getScaledUserBalanceAndSupply(address)": {
        "notice": "Returns the scaled balance of the user and the scaled total supply."
      },
      "initialize(address,address,address,uint8,string,string,bytes)": {
        "notice": "Initializes the debt token."
      },
      "mint(address,address,uint256,uint256)": {
        "notice": "Mints debt token to the `onBehalfOf` address"
      },
      "nonces(address)": {
        "notice": "Returns the nonce value for address specified as parameter"
      },
      "scaledBalanceOf(address)": {
        "notice": "Returns the scaled balance of the user."
      },
      "scaledTotalSupply()": {
        "notice": "Returns the scaled total supply of the scaled balance token. Represents sum(debt/index)"
      },
      "setIncentivesController(address)": {
        "notice": "Sets a new Incentives Controller"
      }
    },
    "notice": "Implements a variable debt token to track the borrowing positions of users at variable rate mode",
    "version": 1
  },
  "storageLayout": {
    "storage": [
      {
        "astId": 13549,
        "contract": "contracts/protocol/tokenization/VariableDebtToken.sol:VariableDebtToken",
        "label": "lastInitializedRevision",
        "offset": 0,
        "slot": "0",
        "type": "t_uint256"
      },
      {
        "astId": 13552,
        "contract": "contracts/protocol/tokenization/VariableDebtToken.sol:VariableDebtToken",
        "label": "initializing",
        "offset": 0,
        "slot": "1",
        "type": "t_bool"
      },
      {
        "astId": 13622,
        "contract": "contracts/protocol/tokenization/VariableDebtToken.sol:VariableDebtToken",
        "label": "______gap",
        "offset": 0,
        "slot": "2",
        "type": "t_array(t_uint256)50_storage"
      },
      {
        "astId": 31344,
        "contract": "contracts/protocol/tokenization/VariableDebtToken.sol:VariableDebtToken",
        "label": "_nonces",
        "offset": 0,
        "slot": "52",
        "type": "t_mapping(t_address,t_uint256)"
      },
      {
        "astId": 31346,
        "contract": "contracts/protocol/tokenization/VariableDebtToken.sol:VariableDebtToken",
        "label": "_domainSeparator",
        "offset": 0,
        "slot": "53",
        "type": "t_bytes32"
      },
      {
        "astId": 31121,
        "contract": "contracts/protocol/tokenization/VariableDebtToken.sol:VariableDebtToken",
        "label": "_borrowAllowances",
        "offset": 0,
        "slot": "54",
        "type": "t_mapping(t_address,t_mapping(t_address,t_uint256))"
      },
      {
        "astId": 31128,
        "contract": "contracts/protocol/tokenization/VariableDebtToken.sol:VariableDebtToken",
        "label": "_underlyingAsset",
        "offset": 0,
        "slot": "55",
        "type": "t_address"
      },
      {
        "astId": 31510,
        "contract": "contracts/protocol/tokenization/VariableDebtToken.sol:VariableDebtToken",
        "label": "_userState",
        "offset": 0,
        "slot": "56",
        "type": "t_mapping(t_address,t_struct(UserState)31505_storage)"
      },
      {
        "astId": 31516,
        "contract": "contracts/protocol/tokenization/VariableDebtToken.sol:VariableDebtToken",
        "label": "_allowances",
        "offset": 0,
        "slot": "57",
        "type": "t_mapping(t_address,t_mapping(t_address,t_uint256))"
      },
      {
        "astId": 31518,
        "contract": "contracts/protocol/tokenization/VariableDebtToken.sol:VariableDebtToken",
        "label": "_totalSupply",
        "offset": 0,
        "slot": "58",
        "type": "t_uint256"
      },
      {
        "astId": 31520,
        "contract": "contracts/protocol/tokenization/VariableDebtToken.sol:VariableDebtToken",
        "label": "_name",
        "offset": 0,
        "slot": "59",
        "type": "t_string_storage"
      },
      {
        "astId": 31522,
        "contract": "contracts/protocol/tokenization/VariableDebtToken.sol:VariableDebtToken",
        "label": "_symbol",
        "offset": 0,
        "slot": "60",
        "type": "t_string_storage"
      },
      {
        "astId": 31524,
        "contract": "contracts/protocol/tokenization/VariableDebtToken.sol:VariableDebtToken",
        "label": "_decimals",
        "offset": 0,
        "slot": "61",
        "type": "t_uint8"
      },
      {
        "astId": 31527,
        "contract": "contracts/protocol/tokenization/VariableDebtToken.sol:VariableDebtToken",
        "label": "_incentivesController",
        "offset": 1,
        "slot": "61",
        "type": "t_contract(IAaveIncentivesController)3367"
      }
    ],
    "types": {
      "t_address": {
        "encoding": "inplace",
        "label": "address",
        "numberOfBytes": "20"
      },
      "t_array(t_uint256)50_storage": {
        "base": "t_uint256",
        "encoding": "inplace",
        "label": "uint256[50]",
        "numberOfBytes": "1600"
      },
      "t_bool": {
        "encoding": "inplace",
        "label": "bool",
        "numberOfBytes": "1"
      },
      "t_bytes32": {
        "encoding": "inplace",
        "label": "bytes32",
        "numberOfBytes": "32"
      },
      "t_contract(IAaveIncentivesController)3367": {
        "encoding": "inplace",
        "label": "contract IAaveIncentivesController",
        "numberOfBytes": "20"
      },
      "t_mapping(t_address,t_mapping(t_address,t_uint256))": {
        "encoding": "mapping",
        "key": "t_address",
        "label": "mapping(address => mapping(address => uint256))",
        "numberOfBytes": "32",
        "value": "t_mapping(t_address,t_uint256)"
      },
      "t_mapping(t_address,t_struct(UserState)31505_storage)": {
        "encoding": "mapping",
        "key": "t_address",
        "label": "mapping(address => struct IncentivizedERC20.UserState)",
        "numberOfBytes": "32",
        "value": "t_struct(UserState)31505_storage"
      },
      "t_mapping(t_address,t_uint256)": {
        "encoding": "mapping",
        "key": "t_address",
        "label": "mapping(address => uint256)",
        "numberOfBytes": "32",
        "value": "t_uint256"
      },
      "t_string_storage": {
        "encoding": "bytes",
        "label": "string",
        "numberOfBytes": "32"
      },
      "t_struct(UserState)31505_storage": {
        "encoding": "inplace",
        "label": "struct IncentivizedERC20.UserState",
        "members": [
          {
            "astId": 31502,
            "contract": "contracts/protocol/tokenization/VariableDebtToken.sol:VariableDebtToken",
            "label": "balance",
            "offset": 0,
            "slot": "0",
            "type": "t_uint128"
          },
          {
            "astId": 31504,
            "contract": "contracts/protocol/tokenization/VariableDebtToken.sol:VariableDebtToken",
            "label": "additionalData",
            "offset": 16,
            "slot": "0",
            "type": "t_uint128"
          }
        ],
        "numberOfBytes": "32"
      },
      "t_uint128": {
        "encoding": "inplace",
        "label": "uint128",
        "numberOfBytes": "16"
      },
      "t_uint256": {
        "encoding": "inplace",
        "label": "uint256",
        "numberOfBytes": "32"
      },
      "t_uint8": {
        "encoding": "inplace",
        "label": "uint8",
        "numberOfBytes": "1"
      }
    }
  }
}